:020000040000fa
:08000000e261040000000000b1
:020000040000fa
:10040000839f68000100e00002003d0060001000d2
:10041000e08018000300e00002003d0060011100d0
:10042000e0811900050007004f00e00002003b00da
:1004300060001000e0801800000006006022b80094
:10044000060220000000d0008180d2000482d20089
:100450008582d2000000a0000202520083825a006e
:10046000030031000202420083824a000000a10022
:100470000603e900f3ff3a000000060000017800df
:1004800000c2b300010037000201e800924078008a
:1004900080cf5000fcff3200e9cf5000faff32005d
:1004a000d0c2b30080cf500003003a000201e80040
:1004b00014c0b300050037000042eb00b0c2b30027
:1004c00080cf500001003a000201e8008000eb00fc
:1004d00005fd2f00040037006a08b90000804100c4
:1004e000850040000201e8009201fb000580410008
:1004f000e90f5000f8ff36000404e000010032006c
:100500008100ea0001007800000006001041780038
:10051000b141510003003a000000e8000204e0008d
:10052000faff3a000300fb00000006000000fa009a
:10053000c0012000303a880044c7bf00f043b20039
:1005400044e7b700417420009140780000ceb3002a
:1005500000c0600044e7b70042c7bf000042b200dd
:100560000004e000fcff32004c0b070044e0a9004f
:1005700043060700bf0507005000200008060700db
:10058000620607001506070075060700c20207008d
:100590000002070070020700610b0700aa0a0700ab
:1005a0001c070700800507007905070023c2bf006c
:1005b000624060000004e00002003a0010062000e3
:1005c00020118800c222a800990b07001c07070011
:1005d00009080700f3080700390907008f09070019
:1005e000b50907008b1207000060fe00f6ff370018
:1005f0000000fa000080fa00000006003600f80053
:10060000809fbe00829fbe00849fbe00869fbe006a
:10061000889fbe008a9fbe000400fa00a0088000e8
:10062000f04a88008480a90080ff270030009000f5
:100630001048880080ff270010007800704788006d
:1006400080ff2700100090002048880080ff2700ce
:100650002000900030488800104780000000e8002b
:1006600010478800110307002048800020498800b7
:10067000304880003049880020498000e00e880022
:1006800021498000304780000080500020498800c8
:100690003149800040478000008050003049880088
:1006a000204980004400dd00204988003049800056
:1006b0004400dd0030498800204880001007980081
:1006c00032488000020f7800204980008000ea0054
:1006d0003049800000805000404988003049800047
:1006e0000000400050498800100020004048880069
:1006f00020498000e048880051498000204980005e
:1007000080804000d03c29000008b9004088de000d
:10071000cf80de00f04888005046800001082000ad
:1007200080804000f01f200000806000504b880057
:10073000504b800080004000a06b2c0000804000e7
:1007400010007800304b8800504680008000400048
:10075000a06b2c000080400010007800204b880027
:10076000314b8000e04880000181b900214b8000be
:10077000f04880000180b9000200400083804800fa
:100780004109dd004f00de0000007100cf88de006f
:1007900000498800214b8000e04880000000ea000a
:1007a0000181b900314b8000f04880000180b90020
:1007b00002004000838048004109dd004f00de0058
:1007c00000007100cf88de0010498800414a800097
:1007d0001049800000805000cf80de00b0508800bb
:1007e000c1508800114a80000049800000805000fc
:1007f000cf80de005050880061508800505180004a
:100800000000e00002003200350707001300370047
:10081000305180000000e000020032009e06070018
:100820000e003700f04580000000e00002003200ba
:100830008e08070009003700304580000000e00006
:10084000020032006e08070004003700d044800028
:100850000000e000010032006b020700d45080006d
:10086000e5508000b2508000c3508000d05180001d
:10087000cf80de000000510081805900040040005c
:1008800085804800d0508800e15088007450800076
:10089000855080005250800063508000c05180001d
:1008a000cf80de000000510081805900040040002c
:1008b0008580480070508800815088001650800064
:1008c00027508000545080006550800086007800da
:1008d00004007800000db80005b0b9000b017800e5
:1008e0000001410007a0b900000141008205780025
:1008f000385080004950800076508000875080003a
:100900008800780006007800000ab80007c0b90027
:10091000050178000001410009b0b9000001410063
:10092000820278000a0042008b804a0090508800c2
:10093000a15088001650800027508000b4508000dd
:10094000c55080008600780004007800000db800d3
:1009500005b0b9000b0178000001410007a0b90003
:100960000001410082057800385080004950800025
:10097000d6508000e750800088007800060078009c
:10098000000ab80007c0b900050178000001410065
:1009900009b0b90000014100820278000a0042005b
:1009a0008b804a00f05088000151880092508000ee
:1009b000a35080000000200031752000800f5100fe
:1009c000818f59000900340000002000317520009b
:1009d00090508800a150880021478000001020001e
:1009e00000807000204788000f0037009250800080
:1009f000a350800000002000d18a2f00800f5100fa
:100a0000818f590008003d0000002000d18a2f008e
:100a100090508800a15088002147800000102000dd
:100a20000080700020478800f25080000351800051
:100a30000000200031752000800f5100818f590087
:100a4000090034000000200031752000f0508800bb
:100a500001518800214780000010200000807000b4
:100a6000204788000f003700f250800003518000bb
:100a700000002000d18a2f00800f5100818f590083
:100a800008003d0000002000d18a2f00f0508800af
:100a90000151880021478000001020000080700074
:100aa0002047880090508000a15080004309dd005d
:100ab0004d00de0000007100cd88de006049880036
:100ac000f0508000015180004309dd004d00de0040
:100ad00000007100cd88de00704988006049800008
:100ae000104b880070498000004b8800000307000d
:100af000114b80006049800000805000c051880088
:100b0000014b80007049800000805000d051880067
:100b1000414a8000304a8000808f50000b003d0029
:100b2000414a8000a04a800000804000404a88007e
:100b3000414a8000304a8000808f5000110034000c
:100b4000304a8000404a88000e003700414a800049
:100b5000304a8000808f50000a003400414a8000f3
:100b6000a04a800000805000404a8800414a80002e
:100b7000304a8000808f500002003d00304a8000e3
:100b8000404a8800114a8000204a8000808f50002f
:100b90000b003d00114a8000a04a80000080400008
:100ba000104a8800114a8000204a8000808f50003f
:100bb00011003400204a8000104a88000e003700df
:100bc000114a8000204a8000808f50000a003400c3
:100bd000114a8000a04a800000805000104a88001e
:100be000114a8000204a8000808f500002003d00a2
:100bf000204a8000104a8800314b80006049800004
:100c00000181b900214b8000704980000180b9004a
:100c10000000510081805900b04a8800c14a880014
:100c2000214b8000604980000181b900314b800078
:100c3000704980000180b9000200400083804800b4
:100c40004109dd004f00de0000007100cf88de00aa
:100c500090498800b04a8000c14a80004109dd0007
:100c60004f00de0000007100cf88de008049880060
:100c700080498000e04988009149800040db2d00d8
:100c80000180b800d04a8800e14a8800d24a80003a
:100c9000e34a8000b04a8000c14a80000000510051
:100ca000818059004088de00cf80de00f049880056
:100cb000b04a8000c14a800060011000e081180045
:100cc000d04a8000e14a8000000051008180590034
:100cd0004088de00cf80de00004a88002047800088
:100ce0000000e00002003a00570307001800370038
:100cf0000000eb00b00e88000000eb00c00e880082
:100d00000000eb00d00e88006000b8005050880052
:100d1000615088006000b80090508800a1508800a1
:100d20006000b80070508800815088006000b800f2
:100d3000b0508800c15088006000b800f0508800b2
:100d4000015188006000b800d0508800e150880050
:100d5000a0088000f14a800001005000404b88004c
:100d60000080fa004f05be004f04be004f03be00d6
:100d70004f02be004f01be004f00be003600f9001a
:100d8000004006000000fa0095a0a9000080fa00cb
:100d9000000006000000fa000080eb001008880048
:100da00005e1a8004110200091407800f0ccb3008c
:100db00000c060000044a00004e1b7000000eb00a8
:100dc000b00e88000000eb00c00e88000000eb00b1
:100dd000d00e88000000eb00e00e8800c05d20000f
:100de000200e88009be0a9009c00a9000000eb00f9
:100df000500488000000eb0060048800f08f2000a1
:100e0000400e8800c0032000600e88000000eb0048
:100e1000700e88000000eb00800e88000000eb00e0
:100e2000900e880020002800000e880000f02f009f
:100e3000a00e880020002000300e8800c7e1a90025
:100e40000000eb00200f88000000eb00000f88007e
:100e5000e1c1bf007040b300e1e1b700e041a9008b
:100e6000e0e1a8000000eb00100f88000080eb001c
:100e7000300f88000000eb00001b88000000eb0032
:100e800000198800000000000000000000000000c1
:100e90000000000081e3a900113220009140780099
:100ea000c0cfb30000c0600021e3b70020c3bf0083
:100eb0007f40600001c6b3000140700020e3b7002e
:100ec0002063a8002043a8000000eb001019880050
:100ed0003132200091407800c0cfb30000c06000e4
:100ee0000014a00023e3b7000000eb0020198800e5
:100ef000f0c0b30024e3b7000000eb0090198800b5
:100f000080002000401988002603a9000080eb0023
:100f1000601988000080eb00501988002c03a9009c
:100f20002c23a9002c43a9002d03a9007000200048
:100f300080198800213220009140780030ccb30025
:100f400000c0600022e3b70081e3a80021e3a8000d
:100f50000080fa00000006000000fa0001382000be
:100f600091407800f0ccb30000c0600080e3b7008f
:100f70000138200091407800c0cfb30000c060006d
:100f800080e3b70000302000401c880030002000c3
:100f9000501c8800d0002000101c8800807f20009a
:100fa000201c88008480a9009480a80081e3a80008
:100fb0000080fa00000006000000fa0012508000d5
:100fc0002350800060518000cf80de00020040008e
:100fd00083804800105088002150880030508000e5
:100fe0004150800061004000e0804800305088009f
:100ff000415088006000b80050508800615088005f
:101000006000b80090508800a15088006000b800cf
:1010100070508800815088006000b800b05088008f
:10102000c15088006000b800f0508800015188006d
:101030006000b800d0508800e15088000000eb004c
:10104000805188000080eb00705188000000eb00a8
:10105000104a88000000eb00404a880010478000da
:10106000b051880080a72000a1ac2c000700090027
:1010700031587800504780008000780052c0b3009b
:1010800080a720004e0f070080a72000c10f070097
:101090000080fa00000006000000fa000000eb00eb
:1010a000104a88000000eb00404a8800c04d8000d4
:1010b000cf80de001050880021508800d04d800085
:1010c000cf80de0030508800415088006000b800ba
:1010d00050508800615088006000b800905088002f
:1010e000a15088006000b8007050880081508800ce
:1010f0006000b800b0508800c15088006000b8009f
:10110000f0508800015188006000b800d05088007d
:10111000e15088000000eb00505188000000eb0017
:10112000105188000000eb00205188000000eb0007
:1011300030518800e0032000605188000080eb00ff
:10114000705188000000eb008051880050488000fa
:10115000a051880010478000b05188000080fa003c
:10116000000006000000fa000000eb00104a8800b2
:101170000000eb00404a880060518000cf80de0014
:10118000105088002150880010002000010020002d
:1011900030508800415088006000b80050508800ee
:1011a000615088006000b80090508800a15088000d
:1011b0006000b80070508800815088006000b8005e
:1011c000b0508800c15088006000b800f05088001e
:1011d000015188006000b800d0508800e1508800bc
:1011e0000080eb00705188000000eb008051880007
:1011f00050488000a051880010478000b0518800fe
:101200000080fa00000006000000fa002003200021
:10121000204a880020032000304a880011478000bf
:10122000904480008080500000e22400808f5000b5
:101230001c0036001047800090448800a1448000c4
:1012400060468000808f500004003d0060468000b2
:10125000a0448800c0448000b0448800c04480009e
:101260000000e800c044880020ad2c00490f0700b2
:10127000c04480008000780050092000808f50001a
:1012800008003600b0448000c04e88000000eb002b
:10129000d044880010002000e04488000000eb00eb
:1012a000504a88000080fa00000006000000fa00a2
:1012b000305180000000e000030032000000eb002d
:1012c0005046880008013700505180000000e000bf
:1012d00003003200501520005046880002013700fc
:1012e000604b80000000e800604b8800604b80008d
:1012f0008000780000408000808f50001800390086
:10130000200f8000604688000000eb00200f88005e
:101310000000eb00604b8800614680008046800042
:10132000808f500005003c00804680008000ea006d
:1013300060468000808f5000050034002047800008
:101340000180200001007000204788000400370061
:1013500020478000f17f2f000100600020478800b7
:1013600001498000704b800000815000c044800023
:1013700080004000c0982a000080400010007800e3
:101380000280b800d04b8800e14b8800d04b800031
:10139000e14b8000e00f5000e08f58001d0034004a
:1013a000d24b8000e34b8000f0ff2f00f1ff2700bd
:1013b0000201500083815800804b8000914b8000d7
:1013c000800f5100818f590009003400804b80004c
:1013d000914b8000d24b8000e34b80000000410025
:1013e00081804900804b8800914b880025003700a0
:1013f000f0ff2f00f1ff2700804b8800914b880001
:1014000021478000000021000080700020478800f4
:101410001c003700d24b8000e34b800010002000fe
:10142000010028000201500083815800804b800099
:10143000914b8000800f5100818f590009003d00c1
:10144000804b8000914b8000d24b8000e34b8000aa
:101450000000410081804900804b8800914b88004a
:10146000080037001000200001002800804b880091
:10147000914b88002147800000002100008070000f
:1014800020478800804b8000914b80004288de001e
:10149000cf80de00704b8800704b80000000e000c1
:1014a00091003200104980000000e00003003a0083
:1014b0000000eb00e04688006c0037001249800015
:1014c000c04480008000400020b82a000080400016
:1014d000100078000280b8004909dd004700de00f6
:1014e00000007100c788de00b04b8800c14b880047
:1014f000704b80000000e0002f003400b04b8000f3
:10150000c14b8000e00f5000e08f58001400340001
:10151000714b8000009021000089b900b04b800021
:10152000c14b8000800f5100818f590003003d00a6
:1015300000902100e04688004c003700724b80008c
:10154000b04b8000c14b8000811f78001100090062
:101550004208d800cf007800e046880043003700fa
:10156000b04b8000c14b800060011000e08118008a
:10157000714b8000009021000088b900800f51005d
:10158000818f59000300340000702e00e04688006f
:1015900036003700724b8000b04b8000c14b80009a
:1015a000811f7800110009004208d800cf007800a0
:1015b000e04688002d003700b04b8000c14b800012
:1015c000e00f5000e08f580015003400704b800091
:1015d0008000ea00009021000089b900b04b800033
:1015e000c14b8000800f5100818f590003003d00e6
:1015f00000702e00e04688001c003700724b80000f
:10160000b04b8000c14b8000811f780011000900a1
:101610004208d800cf007800e04688001300370069
:10162000714b8000009021000089b900b04b800010
:10163000c14b8000800f5100818f5900030034009e
:1016400000902100e046880008003700724b8000bf
:10165000b04b8000c14b8000811f78001100090051
:101660004208d800cf007800e0468800d14e8000c4
:10167000604680000088b90080007800e046800065
:10168000008040003046880031468000701b2d00ed
:101690000180b8004188de00cf80de00a04b8800ca
:1016a000f14b8000a04b800000804000f04b880090
:1016b000f04b80004700de0050468800f04f80006d
:1016c0000000e00008003a00d04f80000000e00079
:1016d00005003200504680000000e00002003a00a1
:1016e00010002000f04f88000080fa000000060083
:1016f0000000fa00604980000000e00003003a00aa
:10170000704980000000e000cd0032006049800098
:101710000000e00004003d00604980000000ea0095
:10172000904c88000200370060498000904c88008f
:10173000704980000000e00004003d007049800016
:101740000000ea00804c88000200370070498000e9
:10175000804c8800814c8000904c8000808f50002d
:1017600005003d00804c8000704c8800904c80004b
:10177000604c880004003700904c8000704c88005a
:10178000804c8000604c8800624c8000704c80006f
:10179000cf80de00ca09dd00c600de008180710056
:1017a0004a00dd00811f7800110009004208d800be
:1017b000cf007800504c8800714c8000604c800055
:1017c00080804000704c80000080d10080805000fc
:1017d000704c80004280de0080805000704c8000a1
:1017e0004480de0000804000404c8800424c800075
:1017f000504c80008000400080d72a0000804000cc
:10180000100078000200b800410add004f00de0041
:1018100000007200cf08de00304c8800304c8000a1
:1018200090468800a0468000b1468000cc89de004a
:10183000440add004c01de0002017200c046800057
:10184000cf80de0000015100818159009046800068
:101850000100200002004000838048004c09dd00a8
:10186000c400de00810071004c00dd00a04688004d
:10187000b1468800a0468000b14680004088de0066
:10188000cf80de00c0468800c0468000800078001f
:10189000a0692000808f5000410036001000200019
:1018a000d0468800324c800000002000a169200052
:1018b000811f7800110009004288d800cf0078000d
:1018c000204c8800214c8000704c80000100b90041
:1018d0004088de00cf80de00704c8800214c800004
:1018e000604c80000100b9004088de00cf80de003f
:1018f000604c8800214c8000404a80000100b90003
:101900004088de00cf80de00004c8800214c800043
:10191000104a80000100b9004088de00cf80de0060
:10192000104c8800414a8000004c800080805000ac
:10193000f00020000180b800cc09dd004400de008a
:1019400000807100c488de0080007800004c8000b8
:1019500000804000404a8800114a8000104c8000fe
:1019600080805000f00020000180b8004c0add00ab
:101970004400de0000007200c488de0080007800b1
:10198000104c800000804000104a8800814c80008c
:10199000904c8000808f5000040035001600370006
:1019a0000000eb00d0468800250037007049800019
:1019b0000000e00004003d00704c80000000ea00e0
:1019c0007049880002003700704c80007049880020
:1019d000604980000000e00004003d00604c800091
:1019e0000000ea006049880015003700604c800064
:1019f0006049880012003700604980000000e00064
:101a000004003d00704c80000000ea00604988003e
:101a100002003700704c80006049880070498000e7
:101a20000000e00004003d00604c80000000ea007f
:101a30007049880002003700604c800070498800bf
:101a40000080fa00000006000000fa00e149800072
:101a5000f0498000808f50001a003c00e14980006e
:101a6000004a8000808f50000b003c000000eb001b
:101a7000a0498800f1498000e049800000805000c2
:101a8000b0498800014a8000e04980000080500091
:101a9000c049880024003700e1498000004a8000e6
:101aa00000805000a0498800f1498000004a800071
:101ab00000805000b04988000000eb00c049880059
:101ac00019003700f1498000004a8000808f5000e3
:101ad0000b003c00e1498000f0498000008050008c
:101ae000a04988000000eb00b0498800014a80004e
:101af000f049800000805000c04988000a0037008b
:101b0000e1498000004a800000805000a049880020
:101b1000f1498000004a800000805000b0498800f0
:101b20000000eb00c0498800a149800040b82000b7
:101b3000808f50000200340040b82000a049880087
:101b4000b149800040b82000808f5000020034006e
:101b500040b82000b0498800c149800040b820004a
:101b6000808f50000200340040b82000c049880037
:101b7000a0498000b00e8800b0498000c00e8800e7
:101b8000c0498000d00e88000080fa0000000600e6
:101b90000000fa00e922a80015000700e922a900c8
:101ba0000080fa00000006000000fa00d702a90039
:101bb0000f0007000e0007000d000700d702a80065
:101bc0000000eb00a04c880004003700080007006c
:101bd000a04c80000000e800a04c8800a04c8000d1
:101be000fd0f5000f9ff34000080fa0000000600ed
:101bf0000000fa00000000000000000000000000eb
:101c000000000000000000000000000000000000d4
:101c100000000000000000000000000000000000c4
:101c200000000000000000000000000000000000b4
:101c300000000000000000000000000000000000a4
:101c40000000000000000000000000000000000094
:101c50000000000000000000000000000000000084
:101c60000000000000000000000000000080fa00fa
:101c7000000006000000fa000000eb0020088800c9
:101c8000411020009140780000c3b30000c07000f4
:101c900004e1b7000080eb001008880005e1a8000f
:101ca0001061a800011120009140780000c3b3002a
:101cb00000c0700010e1b7001021a9000080eb0007
:101cc000700888000080eb00600888001e61a80092
:101cd000e111200091407800f0ccb30000c060001a
:101ce0001ee1b7001e21a9000080eb00e00888007b
:101cf0000080eb00d008880011e1a8001fe1a800d7
:101d00000000eb00500888000000eb00c0088800cd
:101d10000000eb00300888000000eb00a0088800fd
:101d20000080fa00000006000200fa00000f7800b0
:101d300000088000b04c8800010037000060fe0001
:101d400000088000b14c8000010050009e0f500040
:101d5000faff39000080fa00000006000200fa00d5
:101d6000000f78000000eb00c04c8800070037002f
:101d7000204e2e00ecff0700204e2e00eaff070049
:101d8000c04c80000000e800c04c8800c04c8000bf
:101d90009e0f5000f6ff35000080fa00000006009c
:101da0000200fa00000f78000000eb00d04c880021
:101db0000500370060dc2200dbff0700d04c80000c
:101dc0000000e800d04c8800d04c80009e0f5000ee
:101dd000f8ff35000080fa00000006000000fa005d
:101de00061e0a8006200a80069e0a9006a00a900fb
:101df0008660a900d10a200091407800f0c8b300a5
:101e000000c0600001c3b30001407000ade0b70046
:101e10009660a8000080fa0000000600809fbe00c7
:101e20003400f80000002000a00188000000fa0043
:101e30008660a900d4c2bf0001c8b30001406000a1
:101e40000004e00003003a00204780000010a000da
:101e500020478800d4c2bf000044b2000004e00064
:101e600003003a00204780000030a000204788008f
:101e70000080fa003400f9004f00be000040060068
:101e80000000fa00c602a800c622a800c642a800a8
:101e9000c662a800c682a800c6a2a800c6e2a80022
:101ea000c702a800d2c2a800d2e2a800d222a8008d
:101eb000c6c2a900e922a800d262a900d662a90080
:101ec000d242a800d202a900d602a900d302a900da
:101ed000d702a800d8a2a900dca2a900d882a90034
:101ee000dc82a900d862a900dc62a900d842a9005e
:101ef000dc42a900d822a900dc22a900d802a9004e
:101f0000dc02a9000080fa00000006000000fa00d0
:101f1000f0ff200090518800609b2000e1842a009f
:101f20000f00090031187800609d2000e1862a002a
:101f30000f00090031187800b04e8000204588005d
:101f4000c04e8000c0448800304f8000904588001b
:101f50000000eb00404f88000080fa0000000600ff
:101f60000000fa00e24d80006066260001002000bb
:101f7000811f7800110009004208d800cf007800c6
:101f8000004d8800714e8000004d80000180b90036
:101f9000e04c8800f14c8800e04c8000f14c80005f
:101fa000c389de004d0add004301de00020172003c
:101fb0000000210001002000800f5100818f590096
:101fc000030034000000210090478800070037001c
:101fd000e04c8000f14c80004d09dd004300de0044
:101fe00000007100c388de0090478800614e8000c9
:101ff000004d80000180b900e04c8800f14c880061
:10200000e04c8000f14c8000c389de004d0add0009
:102010004301de00020172000000210001002000e7
:10202000800f5100818f590003003400000021000f
:10203000a047880007003700e04c8000f14c80008a
:102040004d09dd004300de0000007100c388de00a2
:10205000a0478800414e8000004d80000180b900fb
:10206000e04c8800f14c8800e04c8000f14c80008e
:10207000c389de004d0add004301de00020172006b
:102080000000210001002000800f5100818f5900c5
:102090000300340000002100d0478800070037000b
:1020a000e04c8000f14c80004d09dd004300de0073
:1020b00000007100c388de00d0478800514e8000c8
:1020c000004d80000180b900e04c8800f14c880090
:1020d000e04c8000f14c8000c389de004d0add0039
:1020e0004301de0002017200000021000100200017
:1020f000800f5100818f590003003400000021003f
:10210000e047880007003700e04c8000f14c800079
:102110004d09dd004300de0000007100c388de00d1
:10212000e0478800e14d8000500020000088b900a1
:10213000704688000080fa00000006000000fa00e7
:1021400000498000f0558800104980000056880042
:10215000104a800010568800404a800020568800af
:1021600060498000305688007049800040568800e1
:102170002049800050568800304980006056880011
:102180004049800070568800e049800080568800f1
:10219000f049800090568800004a8000a0568800d0
:1021a00070478000d056880060478000e056880065
:1021b00000488000f0568800e04680000057880004
:1021c0003046800010578800604680002057880005
:1021d000b0478000c0568800c146800040062000fd
:1021e0000180b900a2692000811f78001100090058
:1021f0004208d800cf007800b05688000147800020
:10220000c055800000805000d05588000080fa0042
:10221000000006000000fa00d662a800804e800090
:102220000000e800defe0700d602a8002000200023
:10223000dbfe0700d662a9000080fa00000006005d
:102240000000fa000108800030072000808f500055
:1022500005003600004780000000e80000478800c5
:102260000000eb00000888000080fa000000060073
:102270000200fa00000f78000000000000000000db
:10228000000000000000000000000000000000004e
:102290000080fa00000006000000fa0011478000ec
:1022a000b051800080805000f07c2000808f500072
:1022b00005003e000000eb00104a88000000eb0023
:1022c000404a8800840037000000eb00104a880074
:1022d000f01f2000404a8800805180000000e0008c
:1022e00004003a00805180000000e800805188001e
:1022f00079003700404a8000c112200080804000f1
:1023000010498000808f500005003d00504880003b
:10231000740040005048880092fb07006e003700b0
:102320001149800040ed2f00808f500005003d00d6
:1023300050488000740040005048880089fb070026
:1023400065003700b2508000c3508000c0122000ea
:1023500001002000800f5100818f590008003400d7
:10236000705180000000e0000500350050488000fa
:1023700074004000504888007afb07005600370080
:10238000b2508000c3508000a0f62f00f1ff2f0054
:10239000800f5100818f590002003d0006fb0700ad
:1023a0003b0037001149800080f32f00808f5000e0
:1023b00002003d0000fb070035003700705180002f
:1023c000e10f400006003a0081518000a0518000da
:1023d000808f500002003400f7fa07002c0037000d
:1023e000b2508000c350800060092000010020002e
:1023f000800f5100818f590005003400705180001a
:102400000000e00002003500ebfa07002000370072
:10241000b0508000c1508000e00f5000e08f5800a5
:1024200005003c0070518000e10f400002003a00be
:102430008051800070518800805180000000e800c9
:102440008051880081518000d02e2000808f500064
:102450000f0034001050800021508000c04d8800d3
:102460003050800041508000d04d88000000eb00cb
:10247000305188000000eb0020518800100020003f
:102480001051880040012000504888001200370099
:10249000125080002350800000e224000100200040
:1024a000800f5100818f59000b003400514880008b
:1024b000f0182000808f50000700340040012000f9
:1024c00050488800f4fa07001000200020518800ce
:1024d00010002000105188000080fa000000060063
:1024e0000000fa000000eb00104a8800f01f2000f6
:1024f000404a8800805180003249800080004000be
:10250000a0ae2000008040000208780081518000c9
:10251000f03f2000808f500004003c00805180007c
:102520000000e8008051880003003700dafa070055
:1025300010002000805388000080fa000000060090
:102540000800fa00008fbe00f04f80000000e0009d
:1025500027003200805180001e017800800040007a
:10256000a0ae200000804000020878008151800069
:1025700090518000808f500015003d00e04f80009a
:10258000300798008040eb00414798003e009000e3
:10259000e30f50000200340011c0b300414798001f
:1025a000be0090000100e800e04f88004e4090001f
:1025b0000004e0000e003200805180000000e800be
:1025c000805188000000eb00e04f880008003700d1
:1025d0000000eb00f04f88000000eb008051880005
:1025e0000000eb00d04f88001000200080538800ce
:1025f0000080fa00000006000000fa004048800059
:102600000000e000e50032000000eb0040488800d8
:10261000704780006101b900904d8000a14d80009d
:102620000200400083804800904d8800a14d880042
:10263000a1498000204980000181b900b149800092
:10264000304980000180b9000201400083814800c8
:10265000c1498000404980000180b900020040006b
:1026600083804800504d8800614d8800324d8000c5
:10267000434d8000504d8000614d800002004000bd
:1026800083804800304d8800414d8800804d800097
:102690000000e800804d8800814d8000f007200098
:1026a000808f5000bd0034000000eb00804d88009a
:1026b000904d8000a14d80004909dd004700de00fb
:1026c00000007100c788de0060478800304d800040
:1026d000414d80004909dd004700de000000710027
:1026e000c788de0042b82000811f78001100090071
:1026f0004208d800cf007800b04788006000b800da
:10270000904d8800a14d88006000b800304d8800d1
:10271000414d8800f04e8000f14d80006047800000
:10272000808f500003003400f04d80006047880027
:1027300006003700214e800060478000808f5000e7
:1027400002003d00204e800060478800014e80005e
:1027500060478000808f5000110034006147800086
:10276000004e80000080500060478800f14d8000de
:10277000004e80000081500091478000604780003b
:102780000180b900811f7800110009004208d800bb
:10279000cf0078000000ea0060478800160037008c
:1027a000114e800060478000808f5000030035008c
:1027b0000000eb00604788000f0037006147800091
:1027c000104e80000080500060478800214e80003d
:1027d000104e800000815000a147800060478000bb
:1027e0000180b900811f7800110009004208d8005b
:1027f000cf0078006047880080002000704d88007e
:10280000714d8000604780000180b9004d09dd00f6
:102810004300de0000007100c388de00504a8800db
:1028200060468000ef0f500005003c00504a8000d9
:102830000000e00002003d000000eb00504a88006c
:10284000504a80000000e00006003d00504a800031
:102850000000ea00504a88000080eb00204d88000c
:102860000200370010002000204d8800b147800092
:10287000d0478000808f50001e003400a1498000a6
:10288000b049800080804000c049800080804000c6
:10289000505525000180b9004088de00cf80de0061
:1028a000d0498800d04980000000e00034003400a6
:1028b000d2498000d0478000cf80de00811f7800a1
:1028c000110009004208d800cf007800104d8800a0
:1028d000514a8000104d8000808f50002800340045
:1028e000104d8000504a880040ad2c00a909070017
:1028f00023003700e04780008000ea00b0478000f6
:10290000808f50001e003400a1498000b049800033
:1029100080804000c04980008080400050552500e4
:102920000180b9004088de00cf80de00d0498800f9
:10293000d04980000000e00011003400d24980003e
:10294000e0478000cf80de00811f78001100090081
:102950004208d800cf0078000000ea00104d88003f
:10296000514a8000104d8000808f500004003d00cf
:10297000104d8000504a880040ad2c0085090700aa
:10298000d0468000504a8000204a8800214d8000b7
:10299000504a80000088b900304a88000080fa0060
:1029a000000006000000fa00a00f2000b0558800cb
:1029b000b05580000000e0000f00320001478000a9
:1029c000a055800080805000b0558000808f50005e
:1029d00009003900d9fd0700e05580000000e00043
:1029e000020032000000eb00b05588000047800074
:1029f000a0558800840907000080fa000000060046
:102a00000000fa0000192000204a88000000eb00b6
:102a1000304a880011478000f044800080805000d8
:102a200080382100808f50000e0036001047800053
:102a3000f044880021458000e01f2000808f500076
:102a400004003c00204580000000e800204588008c
:102a5000020037000000eb00204588002045800080
:102a6000b04e88000080fa00000006000000fa0066
:102a700011478000d045800080805000409c20009d
:102a8000808f50000c00360010478000d045880031
:102a9000604680000000e00007003a00e04580004a
:102aa0000004b000e0458800e1458000f01f2000f0
:102ab00000806000e04588000080fa000000060009
:102ac0000000fa00105180000000e0001f003200fa
:102ad0000000eb0010518800205180000000e00051
:102ae0001500320090ad2c002a09070060af2c00c1
:102af00028090700b0b02c002609070090b12c006f
:102b00002409070070b22c002209070090b12c00a4
:102b10002009070050b32c001e09070090b12c00bb
:102b20001c09070030b42c001a090700a0ba2c00b9
:102b3000180907003700370070c12c00150907007d
:102b400090c62c001309070032003700e0448000d3
:102b50000000e0000d0032000000eb00e0448800bf
:102b6000a0448000ff0f500003003c0070cb2c00fd
:102b7000080907002700370010cd2c0005090700c1
:102b800050d22c0003090700220037004045800086
:102b90000000e0000d0032000000eb00404588001e
:102ba00050458000e10f500003003a0010d62c0081
:102bb000f80807001700370020d82c00f508070098
:102bc00060dd2c00f308070012003700b0458000dc
:102bd0000000e0000f0032000000eb00b04588006c
:102be000b0e02c00eb08070080a72000a1ac2c006f
:102bf0000700090031587800704580008000780097
:102c000052c0b30080a720006d08070080a72000f5
:102c1000e00807000080fa00000006000000fa004b
:102c200021478000f0fb2f000080600020478800d3
:102c3000d5c2bf00684060000004e0000f00320011
:102c4000204780004800de000000a2006100600014
:102c50000004e00016003200214780000010200030
:102c6000008070002047880001468000001020008e
:102c700000807000004688000d003700204780006b
:102c80004800de00610060000004e000080032003f
:102c9000014680000010200000807000004688007f
:102ca00021478000f0ef2f0000806000204788005f
:102cb0000080fa00000006000000fa0020478000b3
:102cc0000000e000de00320020478000610060006c
:102cd0000004e0000a00320000468000610060004d
:102ce0000004e0000600320080e32c00a908070081
:102cf00000468000e1ff2f000100600000468800d0
:102d0000204780000000d100610060000004e00066
:102d10000b003200004680000000d100610060001e
:102d20000004e0000600320020e62c0099080700ad
:102d300000468000d1ff2f0001006000004688009f
:102d4000204780004200de00610060000004e000d7
:102d50000b003200004680004200de00610060008f
:102d60000004e00006003200f0e92c0089080700aa
:102d700000468000b1ff2f0001006000004688007f
:102d8000204780004300de00610060000004e00096
:102d90000b003200004680004300de00610060004e
:102da0000004e00006003200d0ec2c007908070097
:102db0000046800071ff2f0001006000004688007f
:102dc000204780004400de00610060000004e00055
:102dd0000b003200004680004400de00610060000d
:102de0000004e0000600320020f12c006908070012
:102df00000468000f1fe2f000100600000468800c0
:102e0000204780004500de00610060000004e00013
:102e10000b003200004680004500de0061006000cb
:102e20000004e0000600320000f72c0059080700fb
:102e300000468000f1fd2f00010060000046880080
:102e4000204780004600de00610060000004e000d2
:102e50000b003200004680004600de00610060008a
:102e60000004e0000600320080fa2c004908070048
:102e700000468000f1fb2f00010060000046880042
:102e8000204780004700de00610060000004e00091
:102e90000b003200004680004700de006100600049
:102ea0000004e00006003200b0ff2c0039080700e3
:102eb00000468000f1f72f00010060000046880006
:102ec000204780004800de00610060000004e00050
:102ed0000b003200004680004800de006100600008
:102ee0000004e00006003200a0042d0029080700bd
:102ef00000468000f1ef2f000100600000468800ce
:102f0000204780004900de00610060000004e0000e
:102f10000b003200004680004900de0061006000c6
:102f20000004e00006003200900a2d001908070096
:102f300000468000f1df2f0001006000004688009d
:102f4000204780004a00de00610060000004e000cd
:102f50000b003200004680004a00de006100600085
:102f60000004e00006003200600f2d000908070091
:102f700000468000f1bf2f0001006000004688007d
:102f8000204780004b00de00610060000004e0008c
:102f90000b003200004680004b00de006100600044
:102fa0000004e0000600320030122d00f90707008f
:102fb00000468000f17f2f0001006000004688007d
:102fc000204780004c00de00610060000004e0004b
:102fd0000b003200004680004c00de006100600003
:102fe0000004e0000600320090152d00e9070700fc
:102ff00000468000f1ff2e000100600000468800be
:10300000204780004d00de00610060000004e00009
:103010000b003200004680004d00de0061006000c1
:103020000004e00006003200a0192d00d9070700b7
:1030300000468000f1ff2d0001006000004688007e
:103040000080fa00000006001000fa006000b800de
:1030500030079800410798006000b80010079800fa
:10306000210798000000eb00000f78000000eb0043
:10307000000f78001d00370010478000700798008f
:10308000010037000060fe00fe0090001047800045
:10309000808f5000fbff32002048800060079800be
:1030a00031488000510798006e0090006101b9001e
:1030b0003e009000ce009000000041008180490059
:1030c00030079800410798005e0090006101b90048
:1030d0001e009000ae009000000041008180490079
:1030e00010079800210798001e0fe800f00f20003d
:1030f0009e0f1000e0ff34003e009000ce009000d4
:103100004809dd004800de0000007100c888de00cc
:10311000304788001e009000ae0090004809dd0096
:103120004800de0000007100c888de0040478800cb
:103130003147800020232000808f50000c003c008d
:1031400031478000d01c2000808f500008003400e0
:103150004147800020232000808f500004003c0065
:1031600041478000d01c2000808f500004003c00ac
:1031700020478000010220000100700020478800e5
:10318000c01d2d008307070080a72000311e2d00e1
:103190000600090031587800304780008000780030
:1031a00042c0b30080a720000507070080a72000c9
:1031b00078070700a01e2d007607070082a72000d1
:1031c000301e2d000600090030597800404780006d
:1031d0008000780042c0b30080a72000f8060700f6
:1031e00080a720006b0707000080fa00000006009f
:1031f0000000fa008020a900ffff37000000fa005d
:103200008060a900ffff37000000fa008040a9009d
:10321000ffff37000000fa008080a900ffff3700a1
:103220000000fa0080a0a900ffff37003400f8007a
:10323000881f780008002000a80188004f0478004b
:103240000000fa008580a900ffff37003400f80075
:10325000881f780008002000a80188004f0478002b
:103260000000fa008be0a9000080fa003400f900a9
:10327000004006003400f800881f78000800200095
:10328000a80188004f0478000000fa008c00a90013
:103290000080fa003400f900004006000000fa0047
:1032a00000f82f00001688000000eb0020168800b0
:1032b0002ae3a8002ac3a8000000eb0050168800eb
:1032c0000080eb00301688000000eb0080168800bc
:1032d0000080eb00601688000000eb00b01688004c
:1032e000f0ef2f00901688000000eb00e016880039
:1032f00000f02f00c01688000000eb0010178800b7
:103300000080eb00f01688000000eb0040178800fa
:1033100000102000201788000080fa00000006003e
:103320000000fa002002a90001222000914078004c
:1033300090cfb30000c0600020e2b70020a2a90037
:103340002062a900f00020004011880022c2a900dc
:1033500022e2a9009560a80021e2a8002342a8006b
:103360000080fa0000000600809fbe00821f7800e7
:103370003400f80000002000a00188000000fa00de
:103380008560a90010002000b05388003011800033
:1033900074eab70020528000e10f50001f00320095
:1033a00074cabf00ed4f500009003a001000200021
:1033b0002052880010528000e400400020a4200029
:1033c000808040000040eb00804878001300370008
:1033d0001152800070022000808f500005003400e0
:1033e0000000eb00105288000040eb0046eab700f6
:1033f0000a0037001052800042a7200012417800d6
:10340000e400400020a42000008040000248780032
:10341000105280000000e800105288000080fa007e
:103420003400f9004f0178004f00be000040060054
:103430000000fa00b05380000000e00017003200e6
:103440001200370023c2bf00624060000004e000a9
:103450000e003a0074cabf000000fb002011880073
:1034600074cabf00ed4f500006003a0023c2bf00ef
:10347000624060000004e000fcff3a00a000200071
:10348000201188000000eb00b0538800b05380008a
:103490000000e000ebff3a001005370020528000ea
:1034a000e10f50000d053a000000eb00705388005a
:1034b0000000eb0070558800180037007055800040
:1034c000e400400020a420000080400090407800ec
:1034d00000c2b30080cf50000d003a00705580004c
:1034e0008000780070a4200000804000e3f3070013
:1034f0007053880070558000e400400020a4200034
:10350000808040000040eb00804878000a003700cf
:10351000705580000000e8007055880070558000ec
:10352000e400400020a4200000804000104078000b
:103530000004e000e1ff3a00211f2d0060a42000fc
:10354000f2f307000000e000dc043200711f2d00e0
:1035500060a42000edf307000000e00011003a0035
:10356000304780000000e80030478800b01f2d0081
:103570008806070080a7200021202d0006000900f2
:1035800031587800304780008000780042c0b30096
:1035900080a720000a06070080a720007d060700fc
:1035a000c604370091202d0060a42000d7f3070047
:1035b0000000e00011003a00304780000000e90000
:1035c00030478800b01f2d007206070082a7200038
:1035d00020202d0006000900305978003047800077
:1035e0008000780042c0b30080a72000f4050700e7
:1035f00080a7200067060700b0043700d1202d0007
:1036000060a42000c1f307000000e00011003a00b0
:10361000404780000000e8004047880010212d004e
:103620005c06070081a7200022202d00060009006b
:10363000b2587800404780008000780042c0b30054
:1036400080a72000de05070080a7200051060700a4
:103650009a04370081212d0060a42000abf30700fd
:103660000000e00011003a00404780000000e9003f
:103670004047880010212d004606070080a7200043
:1036800021202d00060009003158780040478000b5
:103690008000780042c0b30080a72000c805070062
:1036a00080a720003b06070084043700c1212d00bd
:1036b00060a4200095f307000000e00003003a003a
:1036c00010002000d04f88007c04370011222d000c
:1036d00060a420008df307000000e00003003a0022
:1036e00010002000f04f88007404370091222d0054
:1036f00060a4200085f307000000e00009003a0004
:10370000705380000000e0006c04320070538000b1
:10371000e40f500069043e0070538000b04d8800f3
:103720006604370041232d0060a4200077f30700d2
:103730000000e0000a003a00705380000000e00042
:103740005e043500705380000000e0005b0432002e
:1037500070538000c04d88004ff6070057043700b3
:1037600071232d0060a4200068f307000000e00032
:103770000a003a00705380000000e0004f0435005a
:10378000705380000000e0004c0432007053800051
:10379000d04d880040f6070048043700a1232d00d3
:1037a00060a4200059f307000000e0000a003a007e
:1037b00071538000f01f2000808f50003f043e00b6
:1037c0007053800070538000b04e8800b04e80006f
:1037d000204588003904370071242d0060a42000a2
:1037e0004af307000000e0000a003a00715380002d
:1037f00000402000808f500030043e007053800055
:1038000070538000304f8800304f80009045880012
:103810002a04370001252d0060a420003bf3070097
:103820000000e0000b003a0071538000001e2000f1
:10383000808f500021043e00705380000000e000a3
:103840001e04320070538000e04d8800c4f9070068
:103850001a043700d1262d0060a420002bf30700a6
:103860000000e0000a003a0071538000f03f2000a1
:10387000808f500011043e00705380000000e00073
:103880000e04320070538000f04d88000b043700a6
:1038900001282d0060a420001cf307000000e000b8
:1038a0000a003a0071538000f03f2000808f5000e2
:1038b00002043e00705380000000e000ff0332006d
:1038c00070538000004e8800fc03370031292d0022
:1038d00060a420000df307000000e0000a003a0099
:1038e00071538000f03f2000808f5000f3033e00b2
:1038f000705380000000e000f0033200705380003d
:10390000104e8800ed033700912a2d0060a420009e
:10391000fef207000000e0000a003a007153800048
:10392000f03f2000808f5000e4033e007053800081
:103930000000e000e103320070538000204e880058
:10394000de033700f12b2d0060a42000eff207000a
:103950000000e0000a003a0071538000f03f2000b0
:10396000808f5000d5033e00705380000000e000bf
:10397000d203320070538000304e8800cf033700ee
:10398000712d2d0060a42000e0f207000000e0008f
:103990000b003a0071538000f0702200808f5000bd
:1039a000c6033e00705380000000e000c3033200f5
:1039b00070538000404e880069f90700bf0337004c
:1039c000812e2d0060a42000d0f207000000e0004e
:1039d0000b003a0071538000f0702200808f50007d
:1039e000b6033e00705380000000e000b3033200d5
:1039f00070538000504e880059f90700af0337001c
:103a0000f12f2d0060a42000c0f207000000e000ac
:103a10000b003a0071538000703e2000808f5000f0
:103a2000a6033e00705380000000e000a3033200b4
:103a300070538000604e880049f907009f033700eb
:103a4000e1302d0060a42000b0f207000000e0008b
:103a50000b003a0071538000703e2000808f5000b0
:103a600096033e00705380000000e0009303320094
:103a700070538000704e880039f907008f033700bb
:103a800031322d0060a42000a0f207000000e00009
:103a90000a003a0071538000f0702200808f5000bd
:103aa00086033e00705380000000e0008303320074
:103ab00070538000804e88008003370021332d0032
:103ac00060a4200091f207000000e0000d003a0021
:103ad0007153800020102000808f500077033e003b
:103ae00070538000e40f5000740336007053800060
:103af00065005000c04e8800c04e8000c044880061
:103b00006e03370061332d0060a420007ff20700b0
:103b10000000e0000a003a0071538000703e20006f
:103b2000808f500065033e00705380000000e0006d
:103b30006203320070538000d04e88005f0337006c
:103b400011342d0060a4200070f207000000e00096
:103b500013003a00705380000000e0005703350066
:103b6000705380000000e000540332007053800066
:103b7000e04e8800e04e8000cf80de004209dd008c
:103b8000ce00de00810071004200dd00f200200066
:103b9000030020001af20700804688004703370020
:103ba00091342d0060a4200058f207000000e000ce
:103bb00006003a0070538000e10f50003f033e00c2
:103bc00070538000f04e88003c03370071352d00a3
:103bd00060a420004df207000000e00011003a0050
:103be0007153800080382100808f500033033e00e5
:103bf00070538000ef0f5000300336007053800088
:103c0000004f8800004f80004200dd006101b900d4
:103c10000010270021002000f9f107000040880073
:103c20002603370051362d0060a4200037f207002c
:103c30000000e0000b003a0071538000703e20004d
:103c4000808f50001d033e00715380001003200040
:103c5000808f500019033600705380006051880037
:103c600016033700e1362d0060a4200027f207007c
:103c70000000e00011003a00400120005048880098
:103c800010002000305188000000eb001051880027
:103c90000080eb007051880060518000cf80de0012
:103ca00010508800215088001000200001002000e2
:103cb00030508800415088000003370011372d0034
:103cc00060a4200011f207000000e00007003a00a5
:103cd000400120005048880010002000405188001a
:103ce0000000eb0010518800f402370041372d002e
:103cf00060a4200005f207000000e00003003a0085
:103d00001000200050518800ec02370071372d0060
:103d100060a42000fdf107000000e00015003a005b
:103d2000b04d8000e10f50000d003a0010478000b8
:103d3000904488000000eb00c04488001000200080
:103d4000d04488000000eb00e04488000000eb0055
:103d5000a04488000000eb00b0448800d702370080
:103d6000b0372d008b040700c03d2d0089040700eb
:103d7000d202370021422d0060a42000e3f10700a9
:103d80000000e00017003a00b04d8000e10f500045
:103d90000f00340071538000f01f2000808f50000e
:103da000c6023e0010478000f04488007053800037
:103db0002045880010002000304588000000eb00fe
:103dc000404588001000200050458800bb023700a5
:103dd00080432d006f04070090482d006d040700fc
:103de000b6023700214d2d0060a42000c7f1070066
:103df0000000e00019003a00b04d8000e10f5000d3
:103e00001100340071538000f03f2000808f50007b
:103e1000aa023e001047800070458800704580006f
:103e20006045880070538000904588001000200095
:103e3000a04588000000eb00b0458800100020007d
:103e4000c04588009d02370080432d0051040700c3
:103e5000404e2d004f04070098023700f1532d000b
:103e600060a42000a9f107000000e0000a00320071
:103e700061542d0060a42000a4f107000000e000c0
:103e800005003200f1542d0060a420009ff10700ce
:103e90000000e00002003a00a90207008702370094
:103ea00011552d0060a4200098f107000000e000eb
:103eb0007f003a00705380000000e0007f02320073
:103ec00070538000b05588000000eb00e05588007a
:103ed000104f80000000e00002003d0040562d0021
:103ee0002c040700104f80004e00de0061006000cf
:103ef0000004e00002003200a0562d002504070057
:103f0000104f80004d00de00610060000004e00002
:103f100002003200e0562d001e040700104f800002
:103f20004c00de00610060000004e000020032008e
:103f300020572d0017040700104f80004b00de00b3
:103f4000610060000004e0000200320090572d0084
:103f500010040700104f80004800de006100600080
:103f60000004e0000200320000582d0009040700a0
:103f7000104f80004700de00610060000004e00098
:103f80000200320040582d0002040700104f80004c
:103f90004600de00610060000004e0000200320024
:103fa00080582d00fb030700104f80004200de0008
:103fb000610060000004e00002003200c0582d00e3
:103fc000f4030700104f80000000d1006100600082
:103fd0000004e00002003200a0592d00ed030700ac
:103fe000204f80000000e00002003d00705a2d00cc
:103ff000e8030700204f80004e00de0061006000f3
:104000000004e00002003200405b2d00e1030700e5
:10401000204f80004d00de00610060000004e000e1
:1040200002003200e05b2d00da030700204f800021
:104030004c00de00610060000004e000020032007d
:10404000a05c2d00d3030700204f80004b00de0052
:10405000610060000004e00002003200505d2d00ad
:10406000cc030700204f80004a00de0061006000a2
:104070000004e00002003200605e2d00c50307006e
:10408000204f80004900de00610060000004e00075
:1040900002003200705f2d00be030700f05f2d00ac
:1040a000bc03070000478000c055880003023700aa
:1040b00021602d0060a4200014f107000000e00042
:1040c00005003a0010002000b055880010002000c4
:1040d000e0558800f901370071602d0060a42000d0
:1040e0000af107000000e0000d003a007053800064
:1040f000e10f500005003a00104f80000100280039
:1041000001007000104f8800ec013700104f800054
:10411000f1ff270001006000104f8800e701370021
:1041200031612d0060a42000f8f007000000e000dd
:104130000d003a0070538000e10f500005003a0076
:10414000104f80000100240001007000104f880013
:10415000da013700104f8000f1ff2b0001006000f2
:10416000104f8800d5013700d1612d0060a42000d8
:10417000e6f007000000e0000d003a0070538000f8
:10418000e10f500005003a00104f800001002200ae
:1041900001007000104f8800c8013700104f8000e8
:1041a000f1ff2d0001006000104f8800c3013700af
:1041b00071622d0060a42000d4f007000000e00030
:1041c0000d003a0070538000e10f500005003a00e6
:1041d000104f80000100210001007000104f880086
:1041e000b6013700104f8000f1ff2e000100600083
:1041f000104f8800b101370041632d0060a42000fa
:10420000c2f007000000e0000d003a00705380008b
:10421000e10f500005003a00104f8000018020009f
:1042200001007000104f8800a4013700104f80007b
:10423000f17f2f0001006000104f88009f013700c0
:1042400011642d0060a42000b0f007000000e00021
:104250000d003a0070538000e10f500005003a0055
:10426000104f80000110200001007000104f8800e6
:1042700092013700104f8000f1ef2f000100600025
:10428000104f88008d013700b1642d0060a420001c
:104290009ef007000000e0000d003a00705380001f
:1042a000e10f500005003a00104f80000108200087
:1042b00001007000104f880080013700104f80000f
:1042c000f1f72f0001006000104f88007b013700dc
:1042d00051652d0060a420008cf007000000e00074
:1042e0000d003a0070538000e10f500005003a00c5
:1042f000104f80000104200001007000104f880062
:104300006e013700104f8000f1fb2f0001006000ac
:10431000104f880069013700f1652d0060a420006e
:104320007af007000000e0000c003a0070538000b3
:10433000e10f500004003a00104f80000020a00060
:10434000104f88005d013700104f8000b1ff2f0033
:1043500001006000104f88005801370041672d00b0
:1043600060a4200069f007000000e0000c003a00a3
:1043700070538000e10f500004003a00104f80009d
:104380000010a000104f88004c013700104f800033
:10439000d1ff2f0001006000104f88004701370057
:1043a00081682d0060a4200058f007000000e000a4
:1043b0000d003a0070538000e10f500005003a00f4
:1043c000204f80000100280001007000204f88006d
:1043d0003a013700204f8000f1ff27000100600004
:1043e000204f880035013700c1692d0060a42000ee
:1043f00046f007000000e0000d003a007053800016
:10440000e10f500005003a00204f80000100240019
:1044100001007000204f880028013700204f8000e5
:10442000f1ff2b0001006000204f880023013700be
:10443000c16a2d0060a4200034f007000000e000f5
:104440000d003a0070538000e10f500005003a0063
:10445000204f80000100220001007000204f8800e2
:1044600016013700204f8000f1ff2d000100600091
:10447000204f880011013700f16b2d0060a420004f
:1044800022f007000000e0000d003a0070538000a9
:10449000e10f500005003a00204f8000010021008c
:1044a00001007000204f880004013700204f800079
:1044b000f1ff2e0001006000204f8800ff00370050
:1044c000116d2d0060a4200010f007000000e00036
:1044d0000d003a0070538000e10f500005003a00d3
:1044e000204f80000180200001007000204f8800d4
:1044f000f2003700204f8000f17f2f0001006000a4
:10450000204f8800ed003700916e2d0060a4200040
:10451000feef07000000e0000d003a00705380003d
:10452000e10f500005003a00204f800001402000bc
:1045300001007000204f8800e0003700204f80000d
:10454000f1bf2f0001006000204f8800db00370022
:1045500011702d0060a42000ecef07000000e000c7
:104560000d003a0070538000e10f500005003a0042
:10457000204f80000120200001007000204f8800a3
:10458000ce003700204f8000f1df2f0001006000d7
:10459000204f8800c9003700f1702d0060a4200072
:1045a000daef07000000e00021003a00d04480006c
:1045b0000000e00009003200b0448000c04e8800d6
:1045c000c04e8000c04488000000eb00d04488004a
:1045d00010002000e04488000a00370030518000bd
:1045e0000000e00007003200400120005048880031
:1045f000a9f20700100020002051880010002000c0
:1046000010518800304580000000e00004003200b6
:104610000000eb0030458800100020004045880075
:104620000000eb00b0558800e0010700a300370050
:1046300031712d0060a42000b4ef07000000e000fd
:104640000b003a007053800061006000404f88000a
:10465000404f800061406000c700dd00e0c1bf0046
:104660000074a10001407000e0e1b7009300370042
:10467000b1712d0060a42000a4ef07000000e0004d
:104680000a003a0021458000901f2000808f5000d2
:104690008a003c00204580006500400020458800dd
:1046a00020458000b04e880084003700d1712d0075
:1046b00060a4200095ef07000000e00009003a0028
:1046c00020458000e40f50007c003400204580002d
:1046d000650050002045880020458000b04e8800cd
:1046e00076003700f1712d0060a4200087ef0700ed
:1046f0000000e00005003a000000eb00804a88005e
:1047000010002000704a88006c00370011722d00e4
:1047100060a420007def07000000e00065003a0083
:1047200030722d001b020700d0732d001902070004
:1047300040742d001702070020762d001502070097
:10474000b0772d001302070040792d0011020700f9
:10475000507c2d000f020700d07e2d000d020700b7
:1047600050812d000b02070000842d000902070074
:10477000b0862d000702070080892d000502070082
:10478000d08b2d0003020700808e2d000102070050
:10479000b0902d00ff01070040932d00fd010700a0
:1047a000c0962d00fb010700109a2d00f9010700ab
:1047b000009c2d00f7010700e09d2d00f50107008a
:1047c000e09f2d00f301070020a22d00f10107005a
:1047d00040a52d00ef01070050a72d00ed010700b7
:1047e00030a92d00eb01070010aa2d00e9010700f8
:1047f00020ab2d00e7010700a0ac2d00e50107006c
:10480000e0ad2d00e301070070ae2d00e1010700cf
:1048100000b12d00df01070070b12d00dd010700a0
:1048200050b32d00db01070010b52d00d9010700a2
:10483000d0b62d00d7010700c0b82d00d501070064
:10484000b0ba2d00d301070070bc2d00d1010700c4
:1048500030be2d00cf010700f0bf2d00cd010700b5
:1048600060c22d00cb010700c0c42d00c9010700a4
:1048700020c72d00c701070040c92d00c501070052
:1048800090cb2d00c3010700d0cd2d00c101070042
:1048900070d02d00bf01070010d32d00bd0107000f
:1048a00010d52d00bb01070040d72d00b90107002e
:1048b00002003700e0d82d00b60107000040eb00f1
:1048c00046eab7000000eb00105288000000eb0041
:1048d000705388000000eb00205288000080fa002e
:1048e000000006000000fa000000eb00b055880050
:1048f0000000eb003051880010002000205188009b
:104900000000eb00105188000000eb00d04488004c
:104910000000eb00e04488000000eb003045880018
:104920000000eb00404588000000eb00a045880037
:104930000000eb00b04588000080fa00000006008f
:104940000000fa0030a82000c1dc2d000e00090094
:1049500031587800b04d800080007800e0a8200039
:1049600012c0b3001601070030a82000890107001b
:1049700030a82000b1dd2d00130009003158780067
:10498000c04d80008000780060a8200052c0b300b5
:104990000b010700d04d800080007800f0a82000b7
:1049a00052c0b3000601070030a8200079010700bb
:1049b00030a82000f1de2d002300090031587800d6
:1049c000e04d80008000780000aa200042c0b300c3
:1049d000fb00070030a820006e01070030a820006f
:1049e00031e12d001900090031587800f04d8000a8
:1049f0008000780060a9200042c0b300f0000700ea
:104a000030a820006301070030a82000d1e22d006b
:104a10001900090031587800004e800080007800ad
:104a200060a9200042c0b300e500070030a82000c4
:104a30005801070030a8200071e42d001c00090077
:104a400031587800104e80008000780090a9200036
:104a500042c0b300da00070030a820004d01070073
:104a600030a8200041e62d001c00090031587800d4
:104a7000204e80008000780090a9200042c0b30042
:104a8000cf00070030a820004201070030a8200016
:104a900011e82d001e00090031587800304e8000ca
:104aa00080007800b0a9200042c0b300c400070015
:104ab00030a820003701070030a8200001ea2d00af
:104ac0001c00090031587800404e800080007800ba
:104ad00040a9200042c0b300b900070030a8200060
:104ae0002c01070030a82000d1eb2d002200090086
:104af00031587800504e800080007800a0a9200036
:104b000042c0b300ae00070030a82000210107001a
:104b100030a8200001ee2d0019000900315878005e
:104b2000604e80008000780020a9200032c0b300d1
:104b3000a300070030a820001601070030a82000bd
:104b4000a1ef2d001f00090031587800704e800041
:104b50008000780080a9200032c0b30098000700d0
:104b600030a820000b01070030a82000a1f12d0083
:104b70002500090031587800804e800080007800c0
:104b800020a9200042c0b3008d00070030a82000fb
:104b900000010700b04d8000e10f50000d003a0009
:104ba00030a8200001f42d001c00090031587800c5
:104bb000c04e8000650040008000780070a9200091
:104bc00032c0b3007e00070030a82000f1000700cb
:104bd0001500370030a82000d1f52d001200090083
:104be00031587800b14e800000a9200032c0b300d7
:104bf0007300070030a82000e600070030a820005e
:104c000001f72d000f00090031587800304f800067
:104c100080007800c0a8200042c0b30068000700f0
:104c200030a82000db00070030a8200001f82d008c
:104c30001000090031587800d04e800080007800c4
:104c4000e0a8200032c0b3005d00070030a82000bb
:104c5000d000070030a8200011f92d00170009002e
:104c600031587800e04e800080007800b0a8200025
:104c700052c0b3005200070030a82000c500070052
:104c800030a8200091fa2d00110009003158780059
:104c9000f04e80008000780010a9200012c0b30000
:104ca0004700070030a82000ba00070030a8200005
:104cb000b1fb2d001e00090031587800004f800024
:104cc0008000780010a9200042c0b3003c0007001b
:104cd00030a82000af00070030a82000a1fd2d0063
:104ce0000e00090031587800605180008000780083
:104cf000c0a8200032c0b3003100070030a8200057
:104d0000a400070030a8200091fe2d001300090028
:104d10003158780080ff270010007800800078006c
:104d200000a9200042c0b3002500070030a82000e1
:104d30009800070030a82000d1ff2d000b000900cb
:104d400031587800404f800080007800b0a82000e3
:104d500012c0b3001a00070030a820008d00070021
:104d60000080fa00000006000400fa00000f78003e
:104d7000900020009e0f100005003e001e007800ed
:104d80000043b0000000fb0010079800040037004b
:104d90001e0078007043b0000000fb001007980070
:104da0001e0090000080fa00000006000000fa00db
:104db00090002e00770007000080fa000000060037
:104dc0000600fa00000f780011079800424798008b
:104dd0004e4090000080fb001e004000000fe900e4
:104de000120037001e009000a200200011000900f0
:104df0000280d8008000fd0002c3b3008240400062
:104e00001e007800014878001e009000a2002000db
:104e1000110009000280d800100798001e0fe90059
:104e20004e4090000040e900404798004e409000fe
:104e30000004e000ebff3a000080fa0000000600ea
:104e40000600fa00000f780011079800424798000a
:104e50001e0090000000e00007003d009e0078006a
:104e6000d0c2b300804878001e0090000000ea0025
:104e700010079800030037009e007800b0c2b3000e
:104e8000804878004e4090000080fb001e0f4000dc
:104e9000120037001e009000a2002000110009003f
:104ea0000200d8008000fd0002c3b3008240400031
:104eb0001e007800014878001e009000a20020002b
:104ec000110009000200d800100798001e0fe90029
:104ed0004e4090000040e900404798004e4090004e
:104ee0000004e000ebff3a000080fa00000006003a
:104ef0000800fa0010079800210798006247980000
:104f00006e4090000080fb00800078001e00900042
:104f1000008040000000e9001007980018003700ea
:104f20002e0090006f4f600090c0b3009e4f1000a5
:104f3000040036001e4078007043b000004f780037
:104f4000030037001e4078000043b000004f780097
:104f50009e4078001e009000014878002e009000ce
:104f60004400de00200798001e0090000000e900c9
:104f7000100798006e4090000040e90060479800dc
:104f80006e4090000004e000e5ff3a000080fa0067
:104f9000000006000600fa00100798000000eb0071
:104fa000000f7800000037009e0078001e0090007f
:104fb00000804000104078000004e00003003a0048
:104fc00010002000200798000c00370023c2bf000b
:104fd000624060000004e000f3ff3a009e007800a9
:104fe0001e00900000804000104078000000fb0090
:104ff000201188001e0fe800ebff37002e00900004
:105000000080fa00000006000000fa000080fa00ac
:10501000000006000200fa000000eb00000f78001c
:10502000805380000000e0001a0032000000eb0016
:10503000805388000000eb00000f7800100037005c
:105040001e00780080004000a0ae200000804000dc
:105050009000780042c0b30080a7200078ff0700ce
:10506000c0c2b3007deab7000040eb007eeab700a3
:1050700080a72000c7ff07000060fe001e0fe800a9
:10508000d0ff20009e0f1000edff3400c0022e0064
:0c509000c0ff07000080fa0000000600ce
:020000040000fa
:0200000401f009
:04000000ffff0000fe
:020000040000fa
:0200000401f009
:04000800ffff0000f6
:020000040000fa
:0200000401f009
:04000c00fbff0000f6
:020000040000fa
:0200000401f009
:04001000bdff000030
:020000040000fa
:0200000401f009
:040014007fff00006a
:020000040000fa
:0200000401f009
:04001800ffff0000e6
:020000040000fa
:1000080014620000f8180000fe180000041900002f
:100018000a190000101900001462000014620000a0
:1000280014620000146200001462000014620000f0
:10003800fe02000014620000146200001462000056
:10004800146200001462000014620000b419000079
:100058001619000014620000146200001462000007
:100068001462000014620000146200000e0f000009
:1000780014620000146200001462000014620000a0
:100088001462000014620000146200001462000090
:100098001462000014620000146200001462000080
:1000a8001462000014620000146200001462000070
:1000b8001462000014620000146200001462000060
:1000c8001462000014620000146200001462000050
:1000d8001462000014620000146200001462000040
:1000e8001462000014620000146200001462000030
:1000f8001462000014620000146200001462000020
:10010800146200001462000014620000146200000f
:100118001462000014620000146200002619000036
:100128003a19000014620000146200001462000012
:1001380014620000146200001462000014620000df
:1001480014620000146200001462000014620000cf
:1001580014620000146200001462000014620000bf
:1001680014620000146200001462000014620000af
:10017800146200001462000014620000146200009f
:10018800146200001462000014620000146200008f
:10019800146200001462000014620000146200007f
:1001a800146200001462000014620000146200006f
:1001b800146200001462000014620000146200005f
:1001c800146200001462000014620000146200004f
:1001d800146200001462000014620000146200003f
:1001e800146200001462000014620000146200002f
:0801f800146200001462000013
:020000040000fa
:1002080014620000f8180000fe180000041900002d
:100218000a1900001019000014620000146200009e
:1002280014620000146200001462000014620000ee
:10023800fe02000014620000146200001462000054
:10024800146200001462000014620000b419000077
:100258001619000014620000146200001462000005
:100268001462000014620000146200000e0f000007
:10027800146200001462000014620000146200009e
:10028800146200001462000014620000146200008e
:10029800146200001462000014620000146200007e
:1002a800146200001462000014620000146200006e
:1002b800146200001462000014620000146200005e
:1002c800146200001462000014620000146200004e
:1002d800146200001462000014620000146200003e
:1002e800146200001462000014620000146200002e
:1002f800146200001462000014620000146200001e
:10030800146200001462000014620000146200000d
:100318001462000014620000146200002619000034
:100328003a19000014620000146200001462000010
:1003380014620000146200001462000014620000dd
:1003480014620000146200001462000014620000cd
:1003580014620000146200001462000014620000bd
:1003680014620000146200001462000014620000ad
:10037800146200001462000014620000146200009d
:10038800146200001462000014620000146200008d
:10039800146200001462000014620000146200007d
:1003a800146200001462000014620000146200006d
:1003b800146200001462000014620000146200005d
:1003c800146200001462000014620000146200004d
:1003d800146200001462000014620000146200003d
:1003e800146200001462000014620000146200002d
:0803f800146200001462000011
:020000040000fa
:10509c0001000000b0220000e6000000400100000a
:1050ac0028000000a0000000d70000007a030000d8
:1050bc00050000005000000014000000500000002b
:1050cc00500000000a00000000000000000000007a
:1050dc00000000006400000002000000a4060000b4
:1050ec0000000000000400000000000000000000b0
:1050fc0000000000000000000000000000000000a4
:10510c000000000000000000000000000000000093
:10511c00707f0000c77900001f740000766e0000dd
:10512c00ce68000025630000dc5e0000935a00008e
:10513c004b56000002520000b94d0000744a0000aa
:10514c002f470000e9430000a44000005f3d000031
:10515c00db3a000058380000d43500005133000011
:10516c00cd300000da2e0000e82c0000f52a0000fb
:10517c0003290000102700008b25000006240000e6
:10518c0082220000fd200000781f0000471e000056
:10519c00151d0000e41b0000b31a0000821900006a
:1051ac00911800009f170000ae160000bd150000fe
:1051bc00cc1400000c1400004c1300008d120000e5
:1051cc00cd1100000d11000074100000db0f000069
:1051dc00410f0000a80e00000f0e0000930d000000
:1051ec00180d00009d0c0000220c0000a60b000006
:1051fc00430b0000df0a00007b0a0000180a0000c5
:10520c00b40900006309000012090000c108000085
:10521c00700800001f080000dd0700009a0700005e
:10522c005807000016070000d40600009d06000079
:10523c006706000031060000fa050000c4050000f6
:10524c00970500006a0500003d05000011050000ef
:10525c00e4040000bf0400009a0400007404000081
:10526c004f0400002a0400000b040000ec030000b3
:10527c00cd030000ae030000900300007603000095
:10528c005c03000042030000280300000e03000032
:10529c00f9020000e3020000cd020000b802000099
:1052ac00a2020000900200007e0200006b020000cf
:1052bc0059020000470200003702000028020000db
:1052cc001902000009020000fa010000ed010000c3
:1052dc00df010000d2010000c5010000b801000090
:1052ec00ad010000a2010000970100008c0100003c
:1052fc0080010000770100006d01000064010000d6
:10530c005a01000051010000470100007b1400000d
:10531c0011110000a10e0000cd0c0000610b00006b
:10532c003d0a00004f09000089080000e00700005a
:10533c0050070000d40600006606000006060000b8
:10534c00b0050000640500001f050000e00400002b
:10535c00a8040000740400004404000019040000b8
:10536c00f0030000cb030000a8030000880300003a
:10537c006a0300004e030000330300001a03000010
:10538c0003030000ed020000d8020000c40200007c
:10539c00b2020000a00200008f0200007f02000099
:1053ac00700200006202000054020000470200007c
:1053bc003a0200002e020000220200001702000038
:1053cc000c02000002020000f8010000ef010000d6
:1053dc00e5010000dd010000d4010000cc0100005b
:1053ec00c4010000bc010000b5010000ae010000ca
:1053fc00a7010000a00100009a0100009301000029
:10540c008d01000087010000820100007c0100007a
:10541c0076010000710100006c01000067010000c2
:10542c00620100005e0100005901000054010000ff
:10543c00500100004c010000480100004401000034
:10544c00400100003c010000380100003401000064
:10545c00310100002d0100002a010000270100008d
:10546c0023010000200100001d0100001a010000b2
:10547c001701000014010000110100000e010000d2
:10548c000b010000090100000601000004010000ee
:10549c0001010000ff000000fc000000fa00000009
:1054ac00f7000000f5000000f3000000f000000021
:1054bc00ee000000ec000000ea000000e800000034
:1054cc00e6000000e4000000e2000000e000000044
:1054dc00de000000dc000000da000000d900000053
:1054ec00d7000000d5000000d3000000d20000005f
:1054fc00d0000000ce000000cd000000cb0000006a
:10550c00ca000000c8000000c7000000c500000071
:10551c00c4000000c2000000c1000000bf00000079
:10552c00be000000bd000000bb000000ba0000007f
:10553c00b9000000b7000000b6000000b500000084
:10554c00b4000000b2000000b1000000b000000088
:10555c00af000000ae000000ac000000ab0000008b
:10556c00aa000000a9000000a8000000a70000008d
:10557c00a6000000a5000000a4000000a30000008d
:10558c00a2000000a1000000a00000009f0000008d
:10559c009e0000009d0000009c0000009b0000008d
:1055ac009a0000009900000098000000980000008c
:1055bc009700000096000000950000009400000089
:1055cc009300000092000000920000009100000087
:1055dc00900000008f0000008e0000008e00000084
:1055ec008d0000008c0000008b0000008b00000080
:1055fc008a0000008900000089000000880000007b
:10560c008700000086000000860000008500000076
:10561c008400000084000000830000008200000071
:10562c00820000008100000081000000800000006a
:10563c007f0000007f0000007e0000007d00000065
:10564c007d0000007c0000007c0000007b0000005e
:10565c007a0000007a000000790000007900000058
:10566c007800000078000000770000007700000050
:10567c007600000076000000750000007500000048
:10568c007400000073000000730000007200000042
:10569c007200000071000000710000007100000039
:1056ac0070000000700000006f0000006f00000030
:1056bc006e0000006e0000006d0000006d00000028
:1056cc006c0000006c0000006b0000006b00000020
:1056dc006b0000006a0000006a0000006900000016
:1056ec00690000006800000068000000680000000d
:1056fc006700000067000000a6fe000035d4000023
:10570c00e4b50000289f0000798d0000537f000055
:10571c00c07300001a6a0000f1610000f25a000028
:10572c00e2540000944f0000e54a0000bc46000023
:10573c0003430000a93f0000a13c0000e039000039
:10574c005c3700000d350000ee320000f93000002f
:10575c00282f0000792d0000e82b0000712a000092
:10576c0012290000ca2700009526000073250000ae
:10577c00612400005e2300006922000082210000e9
:10578c00a6200000d51f00000e1f0000511e0000b7
:10579c009c1d0000f01c00004b1c0000ae1b000008
:1057ac00171b0000871a0000fc1900007719000075
:1057bc00f71800007c180000061800009417000071
:1057cc0026170000bd16000056160000f415000048
:1057dc009515000038150000df1400008914000036
:1057ec0036140000e5130000971300004b13000063
:1057fc0001130000b91200007412000030120000f6
:10580c00ef110000af110000711100003511000004
:10581c00fa100000c11000008910000053100000a5
:10582c001e100000ea0f0000b80f0000870f0000e8
:10583c00570f0000280f0000fb0e0000ce0e0000da
:10584c00a30e0000780e00004e0e0000260e000085
:10585c00fe0d0000d70d0000b10d00008c0d0000f6
:10586c00670d0000430d0000200d0000fe0c000031
:10587c00dc0c0000bb0c00009b0c00007c0c00003e
:10588c005d0c00003e0c0000200c0000030c00001e
:10589c00e60b0000ca0b0000ae0b0000930b0000df
:1058ac00780b00005e0b0000450b00002b0b00007a
:1058bc00120b0000fa0a0000e20a0000ca0a0000fb
:1058cc00b30a00009c0a0000860a0000700a00005f
:1058dc005a0a0000450a0000300a00001b0a0000aa
:1058ec00070a0000f2090000df090000cb090000e4
:1058fc00b8090000a5090000930900008009000008
:10590c006e0900005d0900004b0900003a09000017
:10591c00290900001809000008090000f708000018
:10592c00e7080000d8080000c8080000b90800000b
:10593c00a90800009a0800008c0800007d080000ef
:10594c006f080000600800005208000045080000c5
:10595c0037080000290800001c0800000f08000090
:10596c0002080000f5070000e9070000dc07000052
:10597c00d0070000c3070000b7070000ac07000009
:10598c00a007000094070000890700007d070000b5
:10599c0072070000670700005c0700005107000059
:1059ac00470700003c0700003207000027070000f3
:1059bc001d0700001307000009070000ff06000088
:1059cc00f5060000eb060000e2060000d806000019
:1059dc00cf060000c6060000bd060000b40600009d
:1059ec00ab060000a206000099060000900600001d
:1059fc00880600007f060000770600006e06000097
:105a0c00660600005e060000560600004e0600000a
:105a1c00460600003e060000360600002e0600007a
:105a2c00270600001f0600001806000010060000e4
:105a3c000906000001060000fa050000f30500004d
